:100000000C9477000C949F000C949F000C949F001C
:100010000C949F000C949F000C949F000C949F00E4
:100020000C949F000C949F000C949F000C948102F0
:100030000C949F000C949F000C949F000C949F00C4
:100040000C9496090C949F000C94430C0C94750C22
:100050000C949F000C949F000C949F000C949F00A4
:100060000C9428060C949F00084AD73B3BCE016EA7
:1000700084BCBFFDC12F3D6C74319ABD56833DDAFF
:100080003D00C77F11BED9E4BB4C3E916BAAAABE0E
:10009000000000803F000000000800020100000393
:1000A0000407000000000000000001020408102006
:1000B00040800102040810200102040810200404FA
:1000C0000404040404040202020202020303030300
:1000D000030300000000250028002B0000000000A2
:1000E000240027002A00A1004605A50CB300112416
:1000F0001FBECFEFD8E0DEBFCDBF12E0A0E0B1E081
:10010000E2ECFCE202C005900D92AC30B107D9F7E9
:1001100023E0ACE0B2E001C01D92A03CB207E1F7E1
:1001200010E0CCEED0E004C02297FE010E94BA138A
:10013000C63ED107C9F70E94E90C0C9454160C94E2
:10014000000049E350E360E070E087E192E00E9444
:10015000A30784E192E00E943D036DEF71E08CE023
:1001600092E00C94CC0F8CE092E00C945E0FCF9355
:10017000DF93CDB7DEB7A8970FB6F894DEBF0FBEFA
:10018000CDBFBE016F5F7F4F87E192E00E945607AF
:1001900064E171E08FE193E00E94630D69E371E037
:1001A0008FE193E00E94440DBE016F5F7F4F8FE1AE
:1001B00093E00E94630D68E471E08FE193E00E9498
:1001C000440D4D855E856F8578892AE030E08FE1AA
:1001D00093E00E94180E67E571E08FE193E00E94C2
:1001E000440D49895A896B897C892AE030E08FE186
:1001F00093E00E94180E66E671E08FE193E00E94A2
:10020000440D498D5A8D6B8D7C8D22E030E08FE15D
:1002100093E00E94150F65E771E08FE193E00E9483
:10022000630D69E771E08FE193E00E94440D4D8D0D
:100230005E8D6F8D78A122E030E08FE193E00E9427
:10024000150F65E771E08FE193E00E94630D68E8A8
:1002500071E08FE193E00E94440D49A15AA16BA186
:100260007CA122E030E08FE193E00E94150F65E76A
:1002700071E08FE193E00E94630D64E171E08FE132
:1002800093E00E94630D6DEF71E08FE193E00E94B7
:10029000630D64EF71E080E090E00E94030AA8968D
:1002A0000FB6F894DEBF0FBECDBFDF91CF9108959A
:1002B00087E192E00E947808811107C067E971E048
:1002C0008FE193E00E94630DFFCF0E94B70069E0C9
:1002D00070E084E192E00E94D70326E040E855E216
:1002E00060E070E08FE193E00C94E10BCF92DF923D
:1002F000EF92FF92CF93DF93CDB7DEB7A4970FB6FF
:10030000F894DEBF0FBECDBFBE016F5F7F4F87E1A8
:1003100092E00E9418092D893E894F89588D698D78
:100320007A8D8B8D9C8D0E94141126E933E44BE06D
:100330005DE30E94A0106B017C0120E030E0A90188
:100340000E94671187FF0AC02BED3FE049EC50E4A3
:10035000C701B6010E94A1106B017C012BED3FE0AB
:1003600049EC50E4C701B6010E94DB12181654F4A0
:100370002BED3FE049EC50E4C701B6010E94A0100C
:100380006B017C0120E030E044E353E4C701B60197
:100390000E94E6122BED3FE049E450E40E946B110D
:1003A0000E94D311CB01A4960FB6F894DEBF0FBE06
:1003B000CDBFDF91CF91FF90EF90DF90CF90089568
:1003C000AF92BF92CF92DF92EF92FF920F931F9363
:1003D000CF93DF93CDB7DEB762970FB6F894DEBF49
:1003E0000FBECDBF0E94760190931302809312023C
:1003F0004AE0BC01CE0101960E941A10BE016F5F57
:100400007F4F8CE092E00E94E20FCE0101960E94A5
:100410005E0F00910A0110910B01809112029091E0
:100420001302081B190B053B110514F0045511406C
:100430004AE0B801CE0101960E941A1060911202A2
:10044000709113024AE0CE010D960E941A10BE016F
:10045000635F7F4FCE0107960E94F90F66E471E05B
:10046000CE0107960E948510BE016F5F7F4F0E94EC
:100470007210BC018FE193E00E94510DCE010796EE
:100480000E945E0FCE010D960E945E0FCE01019676
:100490000E945E0FB801882777FD8095982F1F92E4
:1004A0001F921F9224EB2F93A12CB12C650114E114
:1004B000E12EF12C00E010E02CEE3FEF4FEF5FEF6C
:1004C0000E94170F84E192E00E94100464E670E03D
:1004D00080E090E00E94030A0F900F900F900F9021
:1004E00062960FB6F894DEBF0FBECDBFDF91CF91FD
:1004F0001F910F91FF90EF90DF90CF90BF90AF9042
:1005000008951F920F920FB60F9211242F933F93CD
:100510004F935F936F937F938F939F93AF93BF930B
:10052000EF93FF938091310287FF05C01092850001
:10053000109284001AC020913102332727FD309594
:100540008091300290E0281739077CF480913102C5
:10055000992787FD9095FC01EE0FFF1FE80FF91F0B
:10056000EE5CFD4F808186FD15C0809131028F5F6A
:100570008093310220913102332727FD30958091FD
:10058000300290E028173907BCF4809131028C309A
:100590005CF112C080913102992787FD9095FC0192
:1005A000EE0FFF1FE80FF91FEE5CFD4F808160E04A
:1005B0008F730E94C80AD9CF8091840090918500E2
:1005C000049680349C4918F480E49CE905C080912D
:1005D0008400909185000496909389008093880010
:1005E0008FEF8093310238C02091840030918500D4
:1005F00080913102992787FD9095FC01EE0FFF1F36
:10060000E80FF91FEE5CFD4F81819281820F931FED
:10061000909389008093880080913102992787FD0B
:100620009095FC01EE0FFF1FE80FF91FEE5CFD4FE8
:10063000808186FF11C080913102992787FD9095B6
:10064000FC01EE0FFF1FE80FF91FEE5CFD4F8081EC
:1006500061E08F730E94C80AFF91EF91BF91AF9143
:100660009F918F917F916F915F914F913F912F91CA
:100670000F900FBE0F901F901895209130022C30D4
:10068000A0F431E0320F30933002FC012083822F3E
:1006900090E0FC01EE0FFF1FE80FF91FEE5CFD4F2D
:1006A00088EB9BE09283818308952FEFFC012083E8
:1006B0000895DF92EF92FF920F931F93CF93DF93F2
:1006C000EC01D62E7A01890188818C3008F066C051
:1006D00061E08D2D0E948F0A8881A82FB0E0FD0176
:1006E000EE0FFF1FEA0FFB1FEE5CFD4F2D2D2F734A
:1006F0009081907C922B908360E272E06E197F096A
:1007000077FF02C06D5F7F4F75956795759567950B
:10071000698340E659E0401B510B57FF02C04D5F13
:100720005F4F55954795559547954A836CE00E94D4
:1007300060139CE0899FB001112420E030E0A90102
:10074000460F571FFA01EE0FFF1FE40FF51FEE5C77
:10075000FD4F908196FD16C02F5F3F4F2C30310525
:1007600071F781110FC01092800082E080938100A8
:100770001092850010928400B19A80916F0082607F
:1007800080936F00888190E0FC01EE0FFF1FE80F5F
:10079000F91FEE5CFD4F8081806480838881DF914A
:1007A000CF911F910F91FF90EF90DF90089520E679
:1007B00039E040E252E00C945903FC0180818C3016
:1007C00070F5918128E830E0291B310997FD3395B8
:1007D000220F331F220F331F621773077CF09281A1
:1007E00028E532E0291B310997FD3395220F331F8D
:1007F000220F331F621773070CF49B01225031093B
:10080000220F331F4FB7F89490E0FC01EE0FFF1F4B
:10081000E80FF91FEE5CFD4F328321834FBF08952F
:100820004F925F926F927F92AF92BF92CF92DF9280
:10083000EF92FF920F931F93CF93DF93EC016032FF
:1008400082E078070CF040C077FD06C0653B71057B
:100850002CF064EB70E002C060E070E0898128E871
:1008600030E0281B310987FD3395220F331F220FFB
:10087000331F5901CC24B7FCC094DC2C882777FDAA
:100880008095982F2A8148E552E0421B510927FDA7
:100890005395440F551F440F551F2A01662457FCDA
:1008A0006094762C7F926F925F924F9214EBE12EC0
:1008B000F12C00E010E020E030E0A9010E94170FC9
:1008C0000F900F900F900F90CE01DF91CF911F915D
:1008D0000F91FF90EF90DF90CF90BF90AF907F90FF
:1008E0006F905F904F900C94DD038091860290E0B2
:1008F00020918702821B910908952091870280919F
:100900008602281750F4E22FF0E0E857FD4F80816F
:1009100090E02F5F2093870208958FEF9FEF089557
:10092000E091870280918602E81730F4F0E0E85702
:10093000FD4F808190E008958FEF9FEF0895089517
:10094000CF92DF92EF92FF920F931F93CF93DF939B
:100950007C01CB018A0120916202222389F0EB0104
:100960006B01C40ED51ECC15DD0569F06991D70168
:10097000ED91FC910190F081E02DC7010995F3CF35
:10098000642F0E94FF05C801DF91CF911F910F9145
:10099000FF90EF90DF90CF900895CF93DF931F9259
:1009A000CDB7DEB76983209162022223D1F0209176
:1009B0006302203240F021E030E0FC0133832283E7
:1009C00080E090E015C080916402E82FF0E0EB59E0
:1009D000FD4F998190838F5F8093640280936302BF
:1009E00005C061E0CE0101960E94FF0581E090E024
:1009F0000F90DF91CF910895FC011382128248EE8F
:100A000053E060E070E044835583668377838DEC28
:100A100091E091838083089510928702109286025C
:100A200010926402109263020C944A05862F4132A0
:100A300008F040E268E872E00E94680510928702C0
:100A400080938602089521E00C94160581E080933E
:100A5000620260938502109264021092630208950C
:100A60000F93062F21E04091630265E672E08091CA
:100A700085020E94AC0510926402109263021092EB
:100A800062020F91089561E00C94300586E592E0D2
:100A90000C94FC041092150381E0809313031092D0
:100AA000120361E082E10E94C80A61E083E10E94D2
:100AB000C80AE9EBF0E080818E7F808380818D7FA2
:100AC000808388E48093B80085E48093BC00089517
:100AD000413208F03FC0909115039111FCCF91E095
:100AE00090931503209313032FEF2093A8021092E5
:100AF000ED02240F2093EC029093140390911403C1
:100B0000880F892B8093140380911203813041F464
:100B100010921203809114038093BB0085EC01C0F6
:100B200085EE8093BC00809115038130E1F38091C4
:100B3000ED02841710F44091ED022EEE32E0FB013D
:100B4000D9018A2F821B841718F48D918193F9CFD4
:100B5000842F089580E008950F93413208F046C035
:100B6000909115039111FCCF92E09093150300939F
:100B700013039FEF9093A8021092ED024093EC02B2
:100B8000FB016EEE72E0DB019A2F961B941718F4AE
:100B900091919D93F9CF1092140390911403880FB3
:100BA000892B8093140380911203813041F41092B9
:100BB0001203809114038093BB0085EC01C085EE85
:100BC0008093BC00222321F0809115038230E1F351
:100BD0008091A8028F3F61F08091A802803251F08D
:100BE0008091A802803341F483E007C081E005C012
:100BF00080E003C082E001C084E00F91089561327B
:100C000098F420911503243089F46093CA02FC0102
:100C10008CEC92E0DC012A2F281B261718F4219176
:100C20002D93F9CF80E0089581E0089582E0089542
:100C300085ED8093BC008091BC0084FDFCCF1092B8
:100C40001503089585EC8093BC0010921503089558
:100C50001F920F920FB60F9211242F933F934F9331
:100C60005F936F937F938F939F93AF93BF93EF9314
:100C7000FF938091B900887F803609F49CC068F5A5
:100C8000883209F45BC090F4803109F454C038F420
:100C9000882309F4F5C0883009F44DC0F5C08831C7
:100CA00009F44CC0803209F45DC0EEC0803409F410
:100CB00068C048F4803309F455C0883309F0E4C0B3
:100CC0008093A802A8C0803509F44FC0883509F484
:100CD0005DC0883409F0D8C0D5C0883909F4C6C0D1
:100CE000A8F4883709F467C038F4883609F463C07B
:100CF000803709F460C0C8C0883809F4B7C08039AB
:100D000009F45FC0803809F0BFC05BC0803B09F4C4
:100D100085C038F4803A09F466C0883A09F47EC088
:100D2000B3C0803C09F4A6C0883C09F4A3C0883B4A
:100D300009F489C0A9C08091140310C09091ED02FC
:100D40008091EC02981770F5E091ED0281E08E0F32
:100D50008093ED02F0E0E251FD4F80818093BB0073
:100D600085EC85C08093A8028DC0E091ED0281E002
:100D70008E0F8093ED028091BB00F0E0E251FD4FB9
:100D800080839091ED028091EC026DC0E091ED02C4
:100D900081E08E0F8093ED028091BB00F0E0E25184
:100DA000FD4F80838091130381116CC081E080939B
:100DB000120384EA60C083E0809315031092A902B5
:100DC000CFCF8091A902803208F050C0E091A902F3
:100DD00081E08E0F8093A9028091BB00F0E0E65580
:100DE000FD4F8083BDCF8091A902803230F4E09125
:100DF000A902F0E0E655FD4F10820E9418066091AE
:100E0000A90270E0E0910E03F0910F038AEA92E0EC
:100E100009951092A9020E94220636C084E08093B0
:100E200015031092CB021092CA02E0911003F091C8
:100E3000110309958091CA02811105C081E0809358
:100E4000CA021092CC02E091CB0281E08E0F809317
:100E5000CB02F0E0E453FD4F80818093BB00909182
:100E6000CB028091CA02981708F47ACF85E8809364
:100E7000BC000AC085EC8093BC001092150304C02E
:100E80001092A8020E941806FF91EF91BF91AF91B6
:100E90009F918F917F916F915F914F913F912F9192
:100EA0000F900FBE0F901F90189508950F931F93EA
:100EB000CF93DF938C01EB0188E2FB0111928A95BD
:100EC000E9F74BE050E069ED71E0CE010E94CE15EC
:100ED0001B8641E050E060E070E04C875D876E87E4
:100EE0007F87F801458956896789708D488B598BB2
:100EF0006A8B7B8B42E050E060E070E04C8B5D8B56
:100F00006E8B7F8B1CA21DA21EA21FA240E050E090
:100F100068E474E4488F598F6A8F7B8F40E050E01B
:100F200068E474EC4C8F5D8F6E8F7F8F4DEC5CECC2
:100F30006CE47EE348A359A36AA37BA3DF91CF911E
:100F40001F910F91089525EE31E0FC01318320833C
:100F5000458B568B678B708F0895CF93DF9300D0AE
:100F6000CDB7DEB786E592E02A8349830E94260545
:100F70004981642F86E592E00E94CD042A81622F88
:100F800086E592E00E94CD0486E592E00F900F90F6
:100F9000DF91CF910C9443050F931F93CF93DF9371
:100FA0008C01EB01262F41E06EE10E94AD07F801B4
:100FB000D483C383C038D10509F45BC0DCF4C034EA
:100FC000D105A9F1C036D10509F442C0A09709F0B6
:100FD0008AC080E090E8A9E8B4E48093100190937F
:100FE0001101A0931201B093130180E090E0A5E7F6
:100FF000B4E471C0C03CD10509F44CC0C03ED10579
:1010000009F459C0C03AD10509F06DC080E090E004
:10101000A8ECB3E48093100190931101A093120106
:10102000B093130180E090E0AFE7B3E454C080E0F8
:1010300090ECA5E5B4E48093100190931101A09386
:101040001201B093130180E090E0AEE3B4E443C03A
:1010500080E090E8A7E2B4E480931001909311013E
:10106000A0931201B093130180E090E0A6E1B4E4F4
:1010700032C080E090E0A1EEB3E480931001909341
:101080001101A0931201B093130180E090E0A8EC4D
:10109000B3E421C080E090E0A5EAB3E480931001BE
:1010A00090931101A0931201B093130180E090E896
:1010B000A3E9B3E410C080E090E0A6E6B3E4809337
:1010C000100190931101A0931201B093130180E0DD
:1010D00090E0ADE4B3E480930C0190930D01A093F4
:1010E0000E01B0930F01DF91CF911F910F910895E1
:1010F000CF93DF93EC0186E592E00E940C0520E09F
:1011000042E06EE1CE010E94AD0760E270E0CE01E8
:101110000E94CC0781E0DF91CF9108956F927F927A
:101120008F929F92AF92BF92CF92DF92EF92FF92F7
:101130000F931F93CF93DF93EC016EE186E592E06E
:101140000E942605E0915602F09157020190F0812D
:10115000E02D63E086E592E0099586E592E00E9445
:10116000430546E06EE186E592E00E94230586E5B0
:1011700092E00E9475040697D4F386E592E00E94FF
:101180007D04682E86E592E00E947D04782E86E537
:1011900092E00E947D04C82E86E592E00E947D04C4
:1011A000D82E86E592E00E947D04882E86E592E0A6
:1011B0000E947D04982EB62CA12CA728B501882763
:1011C00077FD8095982F0E9406126D837E838F8312
:1011D0009887F82CE12CE928B701882777FD8095BE
:1011E000982F0E94061269877A878B879C871C2D0F
:1011F00000E00D29B801882777FD8095982F0E947F
:1012000006126D877E878F87988B198A1A8A1B8AA8
:101210001C8ADF91CF911F910F91FF90EF90DF908B
:10122000CF90BF90AF909F908F907F906F900895D8
:10123000CF92DF92EF92FF920F931F93CF93DF93A2
:101240008C01EB0184E2FB0111928A95E9F7C80158
:101250000E948E0884E290E0A0E0B0E08883998349
:10126000AA83BB83F80185899689A789B08D8C8371
:101270009D83AE83BF8382E090E0A0E0B0E08887EA
:101280009987AA87BB87188A198A1A8A1B8AC090ED
:101290001001D0901101E0901201F0901301A7010C
:1012A000960165817681878190850E946B1120E08F
:1012B00030E048EC52E40E94E6126C8B7D8B8E8B02
:1012C0009F8BA7019601F8016185728583859485BE
:1012D0000E946B1120E030E048EC52E40E94E612DC
:1012E000688F798F8A8F9B8F20910C0130910D012F
:1012F00040910E0150910F01F80165857685878533
:1013000090890E946B1120E030E048EC52E40E948A
:10131000E6126C8F7D8F8E8F9F8FDF91CF911F9103
:101320000F91FF90EF90DF90CF9008951F920F9252
:101330000FB60F9211242F933F938F939F93AF93E8
:10134000BF938091170390911803A0911903B09156
:101350001A033091160323E0230F2D3720F4019652
:10136000A11DB11D05C026E8230F0296A11DB11DC8
:10137000209316038093170390931803A0931903E7
:10138000B0931A0380911B0390911C03A0911D033D
:10139000B0911E030196A11DB11D80931B03909374
:1013A0001C03A0931D03B0931E03BF91AF919F91A7
:1013B0008F913F912F910F900FBE0F901F90189516
:1013C0003FB7F89480911B0390911C03A0911D03DB
:1013D000B0911E0326B5A89B05C02F3F19F00196BA
:1013E000A11DB11D3FBF6627782F892F9A2F620F4D
:1013F000711D811D911D42E0660F771F881F991F87
:101400004A95D1F70895CF92DF92EF92FF92CF9352
:10141000DF936B017C010E94E009EB01C114D10450
:10142000E104F10489F00E949F100E94E0096C1B06
:101430007D0B683E734090F381E0C81AD108E10843
:10144000F108C851DC4FEACFDF91CF91FF90EF90C8
:10145000DF90CF900895789484B5826084BD84B580
:10146000816084BD85B5826085BD85B5816085BD9F
:10147000EEE6F0E0808181608083E1E8F0E01082B8
:10148000808182608083808181608083E0E8F0E0F9
:10149000808181608083E1EBF0E0808184608083E3
:1014A000E0EBF0E0808181608083EAE7F0E080811A
:1014B000846080838081826080838081816080837A
:1014C0008081806880831092C1000895833081F00C
:1014D00028F4813099F08230A1F008958730A9F086
:1014E0008830B9F08430D1F4809180008F7D03C0C2
:1014F000809180008F7780938000089584B58F77E6
:1015000002C084B58F7D84BD08958091B0008F772F
:1015100003C08091B0008F7D8093B0000895CF9379
:10152000DF9390E0FC01E655FF4F2491FC01E2546B
:10153000FF4F8491882349F190E0880F991FFC01A7
:10154000E452FF4FA591B4918E529F4FFC01C5917B
:10155000D4919FB7611108C0F8948C912095822393
:101560008C93888182230AC0623051F4F8948C9164
:10157000322F309583238C938881822B888304C0FB
:10158000F8948C91822B8C939FBFDF91CF9108951B
:101590000F931F93CF93DF931F92CDB7DEB7282F02
:1015A00030E0F901EA56FF4F8491F901E655FF4F0B
:1015B0001491F901E254FF4F04910023C9F08823EC
:1015C00021F069830E94660A6981E02FF0E0EE0F46
:1015D000FF1FEE52FF4FA591B4919FB7F8948C91E5
:1015E000611103C01095812301C0812B8C939FBF93
:1015F0000F90DF91CF911F910F910895FC01818D84
:10160000228D90E0805C9F4F821B91098F739927F8
:101610000895FC01918D828D981731F0828DE80F2D
:10162000F11D858D90E008958FEF9FEF0895FC01E7
:10163000918D828D981761F0828DDF01A80FB11D09
:101640005D968C91928D9F5F9F73928F90E008952D
:101650008FEF9FEF08958BE99CE0892B49F080E0A4
:1016600090E0892B29F00E949B0C81110C940000C2
:101670000895FC01848DDF01A80FB11DA35ABF4F4F
:101680002C91848D90E001968F739927848FA68981
:10169000B7892C93A089B1898C9180648C93938DA8
:1016A000848D981306C00288F389E02D80818F7D98
:1016B00080830895CF93DF93EC01888D8823C9F050
:1016C000EA89FB89808185FD05C0A889B9898C914B
:1016D00086FD0FC00FB607FCF5CF808185FFF2CFE6
:1016E000A889B9898C9185FFEDCFCE010E94390B75
:1016F000E7CFDF91CF910895CF92DF92FF920F93C2
:101700001F93CF93DF931F92CDB7DEB76C0181E0BB
:10171000D60158968C9358975B969C915B975C96F4
:101720008C915C97981307C05096ED91FC9151975E
:10173000808185FD2EC0F601038D10E00F5F1F4FE5
:101740000F731127F02EF601848DF81211C00FB619
:1017500007FCF9CFD6015096ED91FC91519780810D
:1017600085FFF1CFC60169830E94390B6981EBCFF8
:10177000838DE80FF11DE35AFF4F6083D6015B961E
:101780000C935B975296ED91FC9153978081806208
:101790000CC0D6015696ED91FC91579760835096F8
:1017A000ED91FC91519780818064808381E090E08D
:1017B0000F90DF91CF911F910F91FF90DF90CF900D
:1017C0000895BF92CF92DF92EF92FF92CF93DF9373
:1017D000EC016A017B01B22EE889F98982E08083FD
:1017E000411581EE580761057105A1F060E079E0CF
:1017F0008DE390E0A70196010E946C1321503109FE
:10180000410951095695479537952795211580E14E
:10181000380798F0E889F989108260E874E88EE169
:1018200090E0A70196010E946C13215031094109F3
:1018300051095695479537952795EC85FD85308359
:10184000EE85FF852083188EEC89FD89B082EA89B8
:10185000FB89808180618083EA89FB89808188603F
:101860008083EA89FB89808180688083EA89FB899B
:1018700080818F7D8083DF91CF91FF90EF90DF900B
:10188000CF90BF9008951F920F920FB60F92112420
:101890002F938F939F93EF93FF93E0912F03F091FA
:1018A00030038081E0913503F091360382FD12C050
:1018B0009081809138038F5F8F7320913903821755
:1018C00051F0E0913803F0E0E15EFC4F958F80939A
:1018D000380301C08081FF91EF919F918F912F91EB
:1018E0000F900FBE0F901F9018951F920F920FB67A
:1018F0000F9211242F933F934F935F936F937F9396
:101900008F939F93AF93BF93EF93FF938FE193E0F8
:101910000E94390BFF91EF91BF91AF919F918F91F1
:101920007F916F915F914F913F912F910F900FBEDB
:101930000F901F9018958FE193E00E94FE0A21E01E
:10194000892B09F420E0822F08951092220310922F
:10195000210388EE93E0A0E0B0E08093230390930E
:101960002403A0932503B09326038FEE91E0909378
:10197000200380931F0385EC90E090932C038093C9
:101980002B0384EC90E090932E0380932D0380EC46
:1019900090E09093300380932F0381EC90E090933C
:1019A00032038093310382EC90E090933403809370
:1019B000330386EC90E090933603809335031092C6
:1019C00038031092390310923A0310923B030895A2
:1019D00008950E942B0A0E94E80C0E945801CBE255
:1019E000DBE00E94E0012097E1F30E942B0BF9CF8E
:1019F000CF92DF92EF92FF920F931F93CF93DF93DB
:101A00006C017A01EB01E60EF71E00E010E0CE1546
:101A1000DF0561F06991D601ED91FC910190F081B3
:101A2000E02DC6010995080F191FF1CFC801DF91FC
:101A3000CF911F910F91FF90EF90DF90CF9008957D
:101A40006115710581F0DB010D900020E9F7AD0112
:101A500041505109461B570BDC01ED91FC9102806E
:101A6000F381E02D099480E090E00895DC01ED9190
:101A7000FC91DB0114964D915C9115976D917C91D1
:101A80000280F381E02D09940C94200DDC01ED918E
:101A9000FC910190F081E02D09946BEF71E00C94C2
:101AA000200D0F931F93CF93DF93EC010E94360D0F
:101AB0008C01CE010E944D0D800F911FDF91CF91BF
:101AC0001F910F9108950F931F93CF93DF93EC0114
:101AD0000E94200D8C01CE010E944D0D800F911FA0
:101AE000DF91CF911F910F9108958F929F92AF92A6
:101AF000BF92CF92DF92EF92FF920F931F93CF93FB
:101B0000DF93CDB7DEB7A1970FB6F894DEBF0FBE57
:101B1000CDBF7C01C42EE52FCB01D22E19A221E02E
:101B20002D1510F02AE0D22E8E010F5D1F4F8D2C47
:101B3000912CA12CB12C6C2D7E2FA50194010E941B
:101B40006C138C2DD29E80191124015011098A30FA
:101B500014F4805D01C0895CF80180832115310592
:101B60004105510521F0C22EE32FCA01E4CFB8018F
:101B7000C7010E94200DA1960FB6F894DEBF0FBEDC
:101B8000CDBFDF91CF911F910F91FF90EF90DF902C
:101B9000CF90BF90AF909F908F900895CF92DF929B
:101BA000EF92FF920F931F93CF93DF93EC016A01A3
:101BB0007B012115310579F4E881F9810190F081EB
:101BC000E02D642FDF91CF911F910F91FF90EF9047
:101BD000DF90CF9009942A303105E9F477FF1AC0DD
:101BE0006DE20E94460D8C0144275527BA014C191D
:101BF0005D096E097F092AE0CE010E94750D800FF4
:101C0000911FDF91CF911F910F91FF90EF90DF9087
:101C1000CF9008952AE0B701A601CE01DF91CF91C0
:101C20001F910F91FF90EF90DF90CF900C94750D66
:101C30000F931F93CF93DF93EC010E94CE0D8C0185
:101C4000CE010E944D0D800F911FDF91CF911F910A
:101C50000F9108954F925F926F927F928F929F9211
:101C6000AF92BF92CF92DF92EF92FF920F931F93AA
:101C7000CF93DF93EC016A017B01B22E9A01AB0195
:101C8000C701B6010E944C13882319F06EEF71E072
:101C900027C026013701E89477F82FEF3FEF4FE791
:101CA0005FE7C301B2010E944C1381110DC02FEFF9
:101CB0003FEF4FE75FE7C301B2010E9467111816BB
:101CC0001CF462E072E00CC02FEF3FEF4FE75FE4DF
:101CD000C701B6010E94DB121816ACF466E072E090
:101CE000CE01DF91CF911F910F91FF90EF90DF9088
:101CF000CF90BF90AF909F908F907F906F905F90AC
:101D00004F900C94200D2FEF3FEF4FE75FECC70192
:101D1000B6010E94671187FDE1CF20E030E0A90104
:101D2000C701B6010E94671187FF0AC06DE2CE01AC
:101D30000E94460D8C01F7FAF094F7F8F09402C077
:101D400000E010E0A12C60E070E080E09FE3AB14C5
:101D500041F020E030E040E251E40E946B11A39496
:101D6000F6CF9B01AC01C701B6010E94A1106B0127
:101D70007C010E94D8112B013C010E9404129B019E
:101D8000AC01C701B6010E94A0106B017C012AE0E2
:101D9000B301A201CE010E94750D080F191FBB20CF
:101DA00039F06AE072E0CE010E94200D080F191F81
:101DB0007B2C772041F120E030E040E251E4C70184
:101DC000B6010E94E6126B017C010E94D3114B0107
:101DD000AA2497FCA094BA2C2AE030E0B501A40113
:101DE000CE010E94CE0D080F191FC501B4010E943B
:101DF00006129B01AC01C701B6010E94A0106B0145
:101E00007C017A94D6CFC801DF91CF911F910F91B9
:101E1000FF90EF90DF90CF90BF90AF909F908F900A
:101E20007F906F905F904F9008950C942A0E4F9280
:101E30005F926F927F92AF92BF92CF92DF92EF92BA
:101E4000FF920F931F93CF93DF93CDB7DEB7290196
:101E50003A01621B730B840B950B29893A894B89D4
:101E60005C892A193B094C095D09298B3A8B4B8BFC
:101E70005C8B9B01AC0169897A898B899C890E9462
:101E80005013E418F50806091709A80197010E94E4
:101E90008E132A0D3B1D4C1D5D1DCA01B901DF913A
:101EA000CF911F910F91FF90EF90DF90CF90BF9057
:101EB000AF907F906F905F904F900895FC0180816C
:101EC00091810C946514CF93DF93EC018881998103
:101ED000009711F00E946514198218821D821C82DD
:101EE0001B821A82DF91CF9108950F931F93CF9396
:101EF000DF93EC018B016F5F7F4F888199810E9496
:101F0000F414009731F0998388831B830A8381E05E
:101F100001C080E0DF91CF911F910F910895CF9381
:101F2000DF93EC0188819981892B29F08A819B813B
:101F30008617970760F4CE010E94750F882341F041
:101F40008C819D81892B19F4E881F981108281E0CF
:101F5000DF91CF910895EF92FF920F931F93CF934C
:101F6000DF93EC017B018A01BA010E948F0F81117E
:101F700004C0CE010E94630F07C01D830C83B7010C
:101F8000888199810E94C715CE01DF91CF911F9161
:101F90000F91FF90EF900895FC011182108213823F
:101FA0001282158214826115710559F0FB010190AE
:101FB0000020E9F7AF0141505109461B570B0C9423
:101FC000AB0F0895CF93DF93EC01FB0186179707C2
:101FD00061F0608171816115710529F0448155813D
:101FE0000E94AB0F02C00E94630FCE01DF91CF9120
:101FF0000895FC01118210821382128215821482CC
:102000000C94E20FCF93DF93EC016115710561F041
:10201000FB0101900020E9F7AF0141505109461B37
:10202000570B0E94AB0F02C00E94630FCE01DF91DD
:10203000CF9108950F931F93CF93DF93CDB7DEB762
:1020400062970FB6F894DEBF0FBECDBF8C01CB01F7
:10205000F80111821082138212821582148250E0DC
:10206000BE016F5F7F4F0E94DD15BE016F5F7F4F26
:10207000C8010E94021062960FB6F894DEBF0FBE30
:10208000CDBFDF91CF911F910F910895EF92FF92F5
:102090000F931F93CF93DF93EC017B010C811D8184
:1020A0006115710511F480E016C04115510591F0DC
:1020B000040F151FB8010E948F0F8823A1F32881F8
:1020C00039818C819D81B701820F931F0E94C715B2
:1020D0001D830C8381E0DF91CF911F910F91FF90C1
:1020E000EF900895CF93DF93EC01FB01448155817C
:1020F000608171810E944610811103C0CE010E944F
:10210000630FCE01DF91CF910895CF93DF93EC0160
:102110006115710569F0FB0101900020E9F7AF013D
:1021200041505109461B570B0E944610811103C0B4
:10213000CE010E94630FCE01DF91CF9108950895E3
:102140005058BB27AA270ED0FCC1EDD130F0F2D1F8
:1021500020F031F49F3F11F41EF4BDC10EF4E09560
:10216000E7FBB3C1E92FFED180F3BA17620773070B
:102170008407950718F071F49EF516C20EF4E095E9
:102180000B2EBA2FA02D0B01B90190010C01CA0131
:10219000A0011124FF27591B99F0593F50F4503EDC
:1021A00068F11A16F040A22F232F342F4427585FCE
:1021B000F3CF469537952795A795F0405395C9F7E6
:1021C0007EF41F16BA0B620B730B840BBAF091509E
:1021D000A1F0FF0FBB1F661F771F881FC2F70EC03D
:1021E000BA0F621F731F841F48F487957795679510
:1021F000B795F7959E3F08F0B3CF9395880F08F0F9
:102200009927EE0F9795879508958DD158F080E81E
:1022100091E009F49EEF8ED128F040E851E059F4A6
:102220005EEF09C058C1C0C1E92FE0789BD168F3C7
:10223000092E052AC1F3261737074807590738F032
:102240000E2E07F8E02569F0E025E0640AC0EF6390
:1022500007F8009407FADB01B9019D01DC01CA010E
:10226000AD01EF9347D06DD10AD05F91552331F086
:102270002BED3FE049E450FD49EC63CF0895DF9337
:10228000DD27B92FBF7740E85FE31616170648072A
:102290005B0710F4D92F93D19F938F937F936F9304
:1022A000F8D1E8E6F0E01AD14CD12F913F914F914F
:1022B0005F9198D1DD2349F09058A2EA2AED3FE0E2
:1022C00049EC5FE3D0785D274DDFDF913AC1D9D08B
:1022D00008F481E008950CD034C12CD140F023D112
:1022E00030F021F45F3F19F0F0C051115EC1F3C02E
:1022F00039D198F39923C9F35523B1F3951B550BA5
:10230000BB27AA2762177307840738F09F5F5F4FC8
:10231000220F331F441FAA1FA9F333D00E2E3AF009
:10232000E0E830D091505040E695001CCAF729D023
:10233000FE2F27D0660F771F881FBB1F2617370772
:102340004807AB07B0E809F0BB0B802DBF01FF27A2
:1023500093585F4F2AF09E3F510568F0B6C025C1E3
:102360005F3FECF3983EDCF3869577956795B795DC
:10237000F7959F5FC9F7880F911D9695879597F9F7
:102380000895E1E0660F771F881FBB1F6217730770
:102390008407BA0720F0621B730B840BBA0BEE1F85
:1023A00088F7E095089504D06894B111FEC00895AF
:1023B000E1D088F09F5790F0B92F9927B751A0F03E
:1023C000D1F0660F771F881F991F1AF0BA95C9F7C9
:1023D00012C0B13081F0E8D0B1E00895E5C0672FB8
:1023E000782F8827B85F39F0B93FCCF38695779579
:1023F0006795B395D9F73EF4909580957095619562
:102400007F4F8F4F9F4F0895E89409C097FB3EF48C
:1024100090958095709561957F4F8F4F9F4F992331
:10242000A9F0F92F96E9BB279395F69587957795AF
:102430006795B795F111F8CFFAF4BB0F11F460FF6F
:102440001BC06F5F7F4F8F4F9F4F16C0882311F0C7
:1024500096E911C0772321F09EE8872F762F05C0DB
:10246000662371F096E8862F70E060E02AF09A9576
:10247000660F771F881FDAF7880F9695879597F96B
:102480000895990F0008550FAA0BE0E8FEEF161605
:102490001706E807F907C0F012161306E407F50758
:1024A00098F0621B730B840B950B39F40A2661F0CC
:1024B000232B242B252B21F408950A2609F4A1406F
:1024C000A6958FEF811D811D089597F99F6780E87C
:1024D00070E060E008959FEF80EC0895DF93CF9364
:1024E0001F930F93FF92EF92DF927B018C01689410
:1024F00005C0DA2EEF0176D0FE01E894A591259172
:10250000359145915591AEF3EF012CDEFE01970117
:10251000A801DA9479F7DF90EF90FF900F911F9167
:10252000CF91DF91089500240A9416161706180615
:102530000906089500240A941216130614060506C7
:102540000895092E0394000C11F4882352F0BB0F58
:1025500040F4BF2B11F460FF04C06F5F7F4F8F4FBB
:102560009F4F089557FD9058440F551F59F05F3FF6
:1025700071F04795880F97FB991F61F09F3F79F0A5
:1025800087950895121613061406551FF2CF469527
:10259000F1DF08C0161617061806991FF1CF8695A9
:1025A0007105610508940895E894BB27662777278D
:1025B000CB0197F9089565DF08F48FEF08959B012B
:1025C000AC0160E070E080E89FE385CE0BD0B9CF2E
:1025D000AADF28F0AFDF18F0952309F076CF7BCF84
:1025E0001124E3CFBFDFA0F3959FD1F3950F50E007
:1025F000551F629FF001729FBB27F00DB11D639FB5
:10260000AA27F00DB11DAA1F649F6627B00DA11D5A
:10261000661F829F2227B00DA11D621F739FB00D00
:10262000A11D621F839FA00D611D221F749F332770
:10263000A00D611D231F849F600D211D822F762F09
:102640006A2F11249F5750408AF0E1F088234AF006
:10265000EE0FFF1FBB1F661F771F881F9150504052
:10266000A9F79E3F510570F030CF9FCF5F3FECF34D
:10267000983EDCF3869577956795B795F795E7953E
:102680009F5FC1F7FE2B880F911D9695879597F94F
:1026900008959B01AC019ACFF4DE880B990B089545
:1026A000DB018F939F930E94AD13BF91AF91A29FC7
:1026B000800D911DA39F900DB29F900D1124089540
:1026C000991B79E004C0991F961708F0961B881F84
:1026D0007A95C9F780950895A1E21A2EAA1BBB1B13
:1026E000FD010DC0AA1FBB1FEE1FFF1FA217B307DE
:1026F000E407F50720F0A21BB30BE40BF50B661FF4
:10270000771F881F991F1A9469F7609570958095B7
:1027100090959B01AC01BD01CF010895052E97FB5B
:102720001EF400940E94A51357FD07D00E946C135D
:1027300007FC03D04EF40C94A513509540953095AA
:1027400021953F4F4F4F5F4F08959095809570951D
:1027500061957F4F8F4F9F4F08950E94BE13A59F95
:10276000900DB49F900DA49F800D911D112408958C
:10277000EE0FFF1F0590F491E02D0994A29FB00188
:10278000B39FC001A39F700D811D1124911DB29FA5
:10279000700D811D1124911D0895CF93DF93823018
:1027A000910510F482E090E0E091BE03F091BF0348
:1027B00020E030E0A0E0B0E0309739F14081518175
:1027C00048175907B8F04817590771F48281938167
:1027D000109729F013969C938E9312972CC0909388
:1027E000BF038093BE0327C02115310531F0421786
:1027F000530718F0A901DB0101C0EF019A01BD01E7
:10280000DF010280F381E02DD7CF21153105F9F0EA
:10281000281B390B2430310580F48A819B81611596
:10282000710521F0FB019383828304C09093BF0361
:102830008093BE03FE01329644C0FE01E20FF31FF7
:102840008193919322503109398328833AC0209192
:10285000BC033091BD03232B41F420910201309140
:1028600003013093BD032093BC03209100013091FC
:1028700001012115310541F42DB73EB74091040106
:1028800050910501241B350BE091BC03F091BD0371
:10289000E217F307A0F42E1B3F0B2817390778F037
:1028A000AC014E5F5F4F2417350748F04E0F5F1F96
:1028B0005093BD034093BC038193919302C0E0E029
:1028C000F0E0CF01DF91CF910895CF93DF93009790
:1028D00009F487C0FC01329713821282C091BE03B3
:1028E000D091BF03209781F420813181280F391FB7
:1028F0008091BC039091BD038217930779F5F09303
:10290000BD03E093BC036DC0DE0120E030E0AE17F4
:10291000BF0750F412964D915C9113979D0141159C
:10292000510509F1DA01F3CFB383A28340815181CC
:10293000840F951F8A179B0771F48D919C911197B5
:10294000840F951F02969183808312968D919C919E
:102950001397938382832115310529F4F093BF03E4
:10296000E093BE033EC0D9011396FC93EE931297F9
:102970004D915D91A40FB51FEA17FB0779F4808193
:102980009181840F951F0296D90111969C938E9385
:102990008281938113969C938E931297E0E0F0E0EE
:1029A0008A819B81009719F0FE01EC01F9CFCE01DD
:1029B000029628813981820F931F2091BC033091A8
:1029C000BD032817390769F4309729F41092BF0323
:1029D0001092BE0302C013821282D093BD03C09333
:1029E000BC03DF91CF910895A0E0B0E0EAEFF4E1FD
:1029F0000C942116EC01CB01209719F40E94CD1301
:102A0000B8C0FE01E60FF71F9E0122503109E21700
:102A1000F30708F4ACC0D9010D911C91119706176A
:102A20001707B8F00530110508F49FC0A8014450FD
:102A300051094617570708F498C002501109061BA0
:102A4000170B019311936D937C93CF010E94651432
:102A50008CC05B01A01AB10A4E01800E911EA0919C
:102A6000BE03B091BF03612C712C60E070E0109741
:102A700009F449C0A815B905C9F5ED90FC90119766
:102A8000670142E0C40ED11CCA14DB0478F147018F
:102A90008A189B08640142E0C40ED11C1296BC90B7
:102AA00012971396AC91B5E0CB16D10440F0B282E8
:102AB000A38391828082D9018D939C9309C00E5F7C
:102AC0001F4F0E0D1F1DF90111830083EB2DFA2FEF
:102AD0006115710531F0DB011396FC93EE931297AB
:102AE00044C0F093BF03E093BE033FC06D917C915F
:102AF00011976616770608F43B01BD0112960D90FA
:102B0000BC91A02DB4CF6091BC037091BD0368153A
:102B10007905E9F468167906D0F4409100015091E6
:102B200001014115510541F44DB75EB760910401B3
:102B300070910501461B570BE417F507C0F4F0939D
:102B4000BD03E093BC03F901918380830EC00E9412
:102B5000CD137C01009759F0A801BE010E94BE155B
:102B6000CE010E946514C70104C0CE0102C080E0FE
:102B700090E0CDB7DEB7EEE00C943D16FB01DC0132
:102B800002C001900D9241505040D8F70895FB01CA
:102B9000DC0101900D920020E1F70895FB01DC01BA
:102BA0004150504048F001900D920020C9F701C0FB
:102BB0001D9241505040E0F708954532510520F4F0
:102BC000423010F00C94E815FB011082CB010895FF
:102BD000BB274A3031F4992322F4BDE290958195C8
:102BE0009F4F0C94F415BB27FB015527AA27880F8C
:102BF000991FAA1FA41710F0A41B83955051B9F771
:102C0000A05DAA3308F0A95DA193009779F7B111EF
:102C1000B1931192CB010C940D16DC01FC01672FCE
:102C200071917723E1F7329704C07C916D937083A3
:102C30006291AE17BF07C8F308952F923F924F924B
:102C40005F926F927F928F929F92AF92BF92CF923C
:102C5000DF92EF92FF920F931F93CF93DF93CDB745
:102C6000DEB7CA1BDB0B0FB6F894DEBF0FBECDBFBD
:102C700009942A88398848885F846E847D848C848E
:102C80009B84AA84B984C884DF80EE80FD800C8197
:102C90001B81AA81B981CE0FD11D0FB6F894DEBF7A
:102CA0000FBECDBFED01089510E0CCEED0E004C022
:102CB000FE010E94BA132296CE3ED107C9F7F894BE
:022CC000FFCF44
:102CC2000000C0038000010000004A0100007544BA
:102CD200008089442D2D2D2D2D2D2D2D2D2D2D2D89
:102CE2002D2D2D2D2D2D2D2D2D2D2D2D2D2D2D2D12
:102CF2002D2D2D2D2D2D2D2D0053656E736F723AB6
:102D020020202020202020004472697665722056FF
:102D120065723A20202000556E697175652049441C
:102D22003A20202020004D61782056616C75653A6A
:102D32002020202000207554004D696E2056616CC1
:102D420075653A20202020005265736F6C75746996
:102D52006F6E3A202020004F6F6F70732C206E6FC1
:102D620020484D4335383833206465746563746593
:102D720064202E2E2E20436865636B20796F757256
:102D820020776972696E67210000000000CD04A0FF
:102D92000475047D0490049F04484D43353838334C
:102DA2000000000000550718095607000000007CCB
:102DB2000BF80CFE0A170B090B5A0B0D0A006E6179
:0C2DC2006E00696E66006F7666002E00E1
:00000001FF
